:020000040000fa
:080000000002040000000000f2
:020000040000fa
:04000800620300008f
:020000040000fa
:04000c00620300008b
:020000040000fa
:040010006203000087
:020000040000fa
:040014006203000083
:020000040000fa
:04001800620300007f
:020000040000fa
:04001c00620300007b
:020000040000fa
:040020006203000077
:020000040000fa
:040024006203000073
:020000040000fa
:04002800620300006f
:020000040000fa
:04002c00620300006b
:020000040000fa
:040030006203000067
:020000040000fa
:04003400fa020000cc
:020000040000fa
:04003800620300005f
:020000040000fa
:04003c00620300005b
:020000040000fa
:040040006203000057
:020000040000fa
:040044006203000053
:020000040000fa
:04004800620300004f
:020000040000fa
:04004c00620300004b
:020000040000fa
:040050006203000047
:020000040000fa
:040054006203000043
:020000040000fa
:04005800620300003f
:020000040000fa
:04005c00620300003b
:020000040000fa
:040060006203000037
:020000040000fa
:040064006203000033
:020000040000fa
:04006800620300002f
:020000040000fa
:04006c00620300002b
:020000040000fa
:040070006203000027
:020000040000fa
:040074006203000023
:020000040000fa
:040078002e03000053
:020000040000fa
:04007c00620300001b
:020000040000fa
:040080006203000017
:020000040000fa
:040084006203000013
:020000040000fa
:04008800620300000f
:020000040000fa
:04008c00620300000b
:020000040000fa
:040090006203000007
:020000040000fa
:040094006203000003
:020000040000fa
:0400980062030000ff
:020000040000fa
:04009c0062030000fb
:020000040000fa
:0400a00062030000f7
:020000040000fa
:0400a40062030000f3
:020000040000fa
:0400a80062030000ef
:020000040000fa
:0400ac0062030000eb
:020000040000fa
:0400b00062030000e7
:020000040000fa
:0400b40062030000e3
:020000040000fa
:0400b80062030000df
:020000040000fa
:0400bc0062030000db
:020000040000fa
:0400c00062030000d7
:020000040000fa
:0400c40062030000d3
:020000040000fa
:0400c80062030000cf
:020000040000fa
:0400cc0062030000cb
:020000040000fa
:0400d00062030000c7
:020000040000fa
:0400d40062030000c3
:020000040000fa
:0400d80062030000bf
:020000040000fa
:0400dc0062030000bb
:020000040000fa
:0400e00062030000b7
:020000040000fa
:0400e40062030000b3
:020000040000fa
:0400e80062030000af
:020000040000fa
:0400ec0062030000ab
:020000040000fa
:0400f00062030000a7
:020000040000fa
:0400f40062030000a3
:020000040000fa
:0400f800620300009f
:020000040000fa
:0400fc00620300009b
:020000040000fa
:040100006203000096
:020000040000fa
:040104006203000092
:020000040000fa
:04010800620300008e
:020000040000fa
:04010c00620300008a
:020000040000fa
:040110006203000086
:020000040000fa
:040114006203000082
:020000040000fa
:04011800620300007e
:020000040000fa
:04011c00620300007a
:020000040000fa
:040120006203000076
:020000040000fa
:040124006203000072
:020000040000fa
:04012800620300006e
:020000040000fa
:04012c00620300006a
:020000040000fa
:040130006203000066
:020000040000fa
:040134006203000062
:020000040000fa
:04013800620300005e
:020000040000fa
:04013c00620300005a
:020000040000fa
:040140006203000056
:020000040000fa
:040144006203000052
:020000040000fa
:04014800620300004e
:020000040000fa
:04014c00620300004a
:020000040000fa
:040150006203000046
:020000040000fa
:040154006203000042
:020000040000fa
:04015800620300003e
:020000040000fa
:04015c00620300003a
:020000040000fa
:040160006203000036
:020000040000fa
:040164006203000032
:020000040000fa
:04016800620300002e
:020000040000fa
:04016c00620300002a
:020000040000fa
:040170006203000026
:020000040000fa
:040174006203000022
:020000040000fa
:04017800620300001e
:020000040000fa
:04017c00620300001a
:020000040000fa
:040180006203000016
:020000040000fa
:040184006203000012
:020000040000fa
:04018800620300000e
:020000040000fa
:04018c00620300000a
:020000040000fa
:040190006203000006
:020000040000fa
:040194006203000002
:020000040000fa
:0401980062030000fe
:020000040000fa
:04019c0062030000fa
:020000040000fa
:0401a00062030000f6
:020000040000fa
:0401a40062030000f2
:020000040000fa
:0401a80062030000ee
:020000040000fa
:0401ac0062030000ea
:020000040000fa
:0401b00062030000e6
:020000040000fa
:0401b40062030000e2
:020000040000fa
:0401b80062030000de
:020000040000fa
:0401bc0062030000da
:020000040000fa
:0401c00062030000d6
:020000040000fa
:0401c40062030000d2
:020000040000fa
:0401c80062030000ce
:020000040000fa
:0401cc0062030000ca
:020000040000fa
:0401d00062030000c6
:020000040000fa
:0401d40062030000c2
:020000040000fa
:0401d80062030000be
:020000040000fa
:0401dc0062030000ba
:020000040000fa
:0401e00062030000b6
:020000040000fa
:0401e40062030000b2
:020000040000fa
:0401e80062030000ae
:020000040000fa
:0401ec0062030000aa
:020000040000fa
:0401f00062030000a6
:020000040000fa
:0401f40062030000a2
:020000040000fa
:0401f800620300009e
:020000040000fa
:0401fc00620300009a
:020000040000fa
:040200006203000095
:020000040000fa
:040204006203000091
:020000040000fa
:04020800620300008d
:020000040000fa
:04020c006203000089
:020000040000fa
:040210006203000085
:020000040000fa
:040214006203000081
:020000040000fa
:04021800620300007d
:020000040000fa
:04021c006203000079
:020000040000fa
:040220006203000075
:020000040000fa
:040224006203000071
:020000040000fa
:04022800620300006d
:020000040000fa
:04022c006203000069
:020000040000fa
:040230006203000065
:020000040000fa
:040234006203000061
:020000040000fa
:04023800620300005d
:020000040000fa
:04023c006203000059
:020000040000fa
:040240006203000055
:020000040000fa
:040244006203000051
:020000040000fa
:04024800620300004d
:020000040000fa
:04024c006203000049
:020000040000fa
:040250006203000045
:020000040000fa
:040254006203000041
:020000040000fa
:04025800620300003d
:020000040000fa
:04025c006203000039
:020000040000fa
:040260006203000035
:020000040000fa
:040264006203000031
:020000040000fa
:100400004f0021000eff27000e01880000000000b1
:10041000000020000000e000020032000001200087
:100420002002880014000700a80007000000e00078
:1004300003003a0060f420000100200002003700b1
:100440000000200001002000810f70000100320038
:100450000f000700000020000000e0000200320052
:1004600000000200000000004c0e0200000000002e
:100470000040da000000fe00200020000000e00044
:1004800002003200100020009001880000000600e9
:10049000a1028800800478000000eb001f003700f4
:1004a000e284440054a0b4009905ba00e2844400f8
:1004b00054a0b4009906ba00e284440054a0b400e9
:1004c0000006eb00476fde00fd07b200ae018800ba
:1004d000636ce10003003a000ad801000000eb0061
:1004e0000e003700606ce10008003a00004deb00a0
:1004f0000a05e800020039003420ec000af0a000f0
:100500008b05e900f9ff3e00040037006168e10057
:10051000010032000086eb000b00070019c7ba008b
:100520000e04e0001905ba0003003a000a00e000da
:10053000dbff3a0000000600fe07b200ae028800b2
:100540008a047800f5ff37000cd0a300e20f4d00bd
:100550001c003b0089027800354dba000a05e8000e
:10056000020039003420ec000af0a0008b05e900fd
:100570000f003200254dba000a05e80002003900dc
:100580003420ec000af0a0008b05e90008003200de
:100590000c00e0000600320015cdba000a05e800a4
:1005a000020039003420ec000af0a0008b05e900bd
:1005b0008984e80054a0b4000b00e000e2ff3a0098
:1005c000000006009902ba00055d78008b05e9007d
:1005d000f7ff3200c82ade00055d78008b05e900d0
:1005e000f3ff32000c00e000f1ff320019ddba0029
:1005f000eeff3700809fbe003200f8003400f800a4
:1006000010002000a00188001000200000d0fe0093
:100610000000fa000068a9002068a90011e1a90003
:100620001172800000202000008060000000e000c7
:100630000500320000d0bf000004a2000080fb00d3
:100640000040780000f0b7000080fa003400f900a4
:100650003200f9004f00be00004006003600f800ee
:10066000809fbe00829fbe00849fbe00869fbe000a
:100670003200f8003400f80010002000a0018800cb
:100680001000200000d0fe000000fa000288a9003f
:100690002068a8001100200010c0b3002c03070040
:1006a0000080fa003400f9003200f9004f03be0068
:1006b0004f02be004f01be004f00be003600f900e1
:1006c000004006000040da000000fe0000000500c7
:1006d0000003be003d0007006011b8000470a700d1
:1006e00007f0a10007f8a30017003a006509b10060
:1006f0000d0032000d003500860220000628e100c2
:1007000003003500030028006000b8000200050067
:1007100000004000818048000201490083814900b7
:100720008502e900faff3a0000000600f88f420057
:10073000050034008100d1000080d3008502e8006c
:10074000fcff3a00000006006011b8008000eb00da
:10075000000005000001be001c0007000470a70097
:1007600003f0a10003f8a30013003a006509b100eb
:1007700010003200090035006928e1000200350050
:1007800001002800000005000000400081804800b2
:100790008502e900fcff3a0000000600f88f4200e5
:1007a000050035008100d1000080d3008502e800fb
:1007b000fcff3a00000006008000eb00000005008e
:1007c0004f89de00820178007c023700c70ade0014
:1007d000f107b200f50fb20008003200e1cf42008d
:1007e000020032000170a00024000500810f70009b
:1007f000010032000408050044000500810f70006c
:1008000002003a00140005008502e90000004000e3
:1008100081c04800fcff3b000170a00024000500df
:10082000889fbe008a9fbe008c9fbe001b002000d8
:100830000202be0005866800060028000606660063
:100840004709de00f20fb200820032000243e800e6
:1008500080003200c729de00f30fb2007d003200b5
:100860000343e8007b003200f107b2000170a000f2
:10087000f507b2000570a000c708dd004903de00df
:10088000868070004700dd00c72add004923de00b6
:10089000868272004722dd000305510004035000e8
:1008a000858358000300310000004000818048002b
:1008b0000a05e9008c1f78008a9fbe0004005000e2
:1008c000858058000402420085824a0000004000f2
:1008d000818048000005eb000004be006033b800d2
:1008e0000406be000d48e100560031001100090069
:1008f0004dccd8000c01b8000d02b8008481410035
:1009000060824a008283530003045c0084845c009c
:1009100060055d000a00e00025003a0080057800cf
:100920000d40e100490031008800780007007800a0
:10093000110009004d88d8000c01b8000d02b80064
:100940008481410060824a006003110083835b0060
:1009500004045c00e0845c000900e00021003a002f
:100960004f01be000300e0002b003200e3016000f5
:10097000070673008c817100010032006400700072
:100980004200de004e5edd000c007000c258de004a
:1009900001e0a00083010700cf0178008180710091
:1009a0004f06be004f05be004f04be00000006000b
:1009b0008c8343000d044c00e0844c0060054d0026
:1009c0000000e9000a00e000d4ff32008c834300fd
:1009d0000d044c00e0844c0060054d000000e9006f
:1009e000ceff37000c0343008d834b0060044c00a6
:1009f000e0844c000000e9000900e000d8ff32006c
:100a00000c0343008d834b0060044c00e0844c00d9
:100a10000000e900d2ff37004200de004e5edd003c
:100a20000c007000c258de0001e0a000cf01780089
:100a30000300e000daff320060001000e0801800e0
:100a4000d7ff3700f0ff2f00aaff3700f0ff2f007d
:100a5000b9ff37000404be002f01070087067800a5
:100a60000004fd008104fd002b01070007836600e0
:100a70000678a300030032000960a7000800be004a
:100a80002c0037000d78a300020032000800be00e1
:100a9000280037000778a30026003a0001f0a100e3
:100aa00009f0a1000668a30003003200f1ff27004f
:100ab000f0ff2f00baff37000d68a30003003200db
:100ac0000800be008c807000b5ff37000768a300e7
:100ad00007003a000648a30003003200f1ff270098
:100ae000f0ff2f00aeff37000d48a30003003200d7
:100af0006000b8008c807000a9ff37000748a30091
:100b00000400320001f82700000020008c807000f3
:100b1000a3ff3700760107000004fd008104fd00fb
:100b200002057800720107000802be008a01780001
:100b300059ff37000160a0001202200012808800d7
:100b400097ff37000100e000120032000500e000ce
:100b500010003200889fbe008a9fbe008c9fbe009e
:100b60000006eb0001f8a300030032006000100053
:100b7000e08018000cf0a00005f8a300030032008c
:100b800060021200e0821a000cf0a2008005eb0067
:100b900041ff37006000b8000200050003836800d1
:100ba0000700280007036300470ade000480a10055
:100bb000c71ade000580a100f70f20000720e10022
:100bc000420032000728e10040003200889fbe004a
:100bd0008a9fbe008c1f7800f107b200f307b200b5
:100be0000400e000640032000170a0000500e00095
:100bf000680032000370a00085054200eb07b100d9
:100c00000204b8000302b8008484440060854a00ee
:100c1000020ab800848444000a854a00030ab80026
:100c200004054500040033000804d0008984d20084
:100c30000a85d2008b05e9006158e1003d003500ce
:100c40000210200009016100030820008981610071
:100c5000f70720008783640008867300c84cde0015
:100c6000c853dd00878474004855de000300e000af
:100c70000600320082037600040032008904e80096
:100c800060054d000a88a3000c003a00f70f200011
:100c90000758e10044003d000a70a100c75ddd0077
:100ca0000a8575008a007300090078004f067800f5
:100cb0004f05be004f04be00000006000a05d1002b
:100cc0008984d3008b05e800f0ff3700881f780087
:100cd0000604780090000700070278000001fd007c
:100ce0008101fd008c0007008702780085037200f7
:100cf0000778a300050032000001fd008101fd001e
:100d00009f0007004f047800000006008503720072
:100d10000748a30003003200f0ff2f00f1ff270077
:100d2000f8ff37000000200001f8270088807000dd
:100d3000f4ff3700880178004848dd0080817100a9
:100d40004848de00c850dd0001007000c850de00d9
:100d5000060478000b0178001600070088807000f8
:100d6000d2ff37000500e000050032001700200028
:100d70003a0007009dff370081037000f9ff3a0039
:100d8000860078004f0678004f05be004f04be0075
:100d90000000050083037100f9ff320027002000e6
:100da0002e00070094ff370001f8270086807000ae
:100db000f4ff37000100e00026003200610111005d
:100dc0007810e10023003c006022b8007010e100c0
:100dd0000400350080027800010078008000eb00fc
:100de000700151000200e00009003400700311009e
:100df000062add00822ade008603dd00878272007b
:100e00000200de00860bdd00070070008208de00b5
:100e100084817100f4ff27000482620084817100e4
:100e200004002800848262006102600005f0a600d0
:100e30000000060004827100070032000000e80094
:100e4000e0804800000006000002be006000b8001c
:100e5000efff37006000b80000000600889fbe006a
:100e60000004eb006138e10016003a000100e000e8
:100e700008003a00c800de004800dd0088002000bd
:100e80000100e00003003a00c800de004800dd0079
:100e9000680444008184cf00e984540006003400d3
:100ea0008908dd00f08314008703de00878070006e
:100eb0000900dd0009044400610214004f04be0073
:100ec000000006000300e00008003a00c811de0040
:100ed0004811dd00880020000300e00003003a0014
:100ee000c811de004811dd00680444008384cf008f
:100ef000e9845400060034008919dd00f0831400f1
:100f00008713de00878171000911dd0009044400a8
:100f1000e1021400e9ff37002700200001f0a700dc
:100f200017002000470bde00f60fb200040032006d
:100f30000643e8000a0032004702b3000000060042
:100f400001037800f607b2000603700002003a00c1
:100f50000703b300000006008702b300000006008c
:100f600001037800f607b2000603700002003200a9
:100f70000770a000000006000760a0000000060047
:100f80000478a300040032000578a30003003200b7
:100f90000168a30001003a000200be000160a00049
:100fa0000000060081017000270032008002eb0083
:100fb00001f8a3000300320060001000e080180078
:100fc00015002000f4072000020242002000340037
:100fd000f70320008703600006042000000363007d
:100fe00002082000000161004700de00c909dd00a1
:100ff00000807100c708de000600e0000800320033
:1010000087037100060032001000b0000180b000bc
:101010000188a30002003200c108de000402e800db
:10102000f107b200f30f20000320e10003003d00b0
:101030004722dd00810072002900370001f82700f7
:101040000000eb00260037006000b800000006003a
:10105000680212007f20e100020034006000b80046
:101060001f0037006011b8007020e1000400350057
:1010700080017800010078008000eb0070025200cf
:101080000400e00009003400f00312000719dd003d
:101090008419de000703dd00868171000400de0094
:1010a000070bdd00060070008408de00f7ff270054
:1010b0008383630087037100060028000303630035
:1010c000070032000700e00003003a006101600001
:1010d00002817300020032001000b0000180b000f5
:1010e0000500a6000000060001f0a00000000600b8
:1010f0004f0ade004709de00f107b200f20fb2002e
:101100000b003200f207b1000170a000c708dd003b
:10111000c901de00838070004700dd000400a600e6
:101120000000060060001000e080180000000600cb
:10113000810f700001003a00000006008182cf009c
:101140000500e00010003e008082cf00ee824200e9
:101150007028e1000400390007003e00800078009c
:101160000000eb000e003700708312008600de00e6
:101170000500dd000a003700708352008600dd00a4
:101180000000eb0006003700e28252008508dd0017
:10119000708312000603de00868070000500dd000b
:1011a0007507b0000501ea000400a6000000060073
:1011b00060001000e080180000000600881f780022
:1011c000030478000300e00007003d006000100009
:1011d000e080180060011900e081190002003b0066
:1011e00001f02d00030037000400070008f0a700fd
:1011f00001f0a0004f04780000000600889fbe00a8
:101200008a9fbe0000827000040271000482710097
:10121000260032000004be000200be006011b800cb
:101220006b092000950220000182cf000a003900de
:101230000541b1000082cf00070039000541b1002f
:101240000982cf00040039000541b1000882cf00b7
:10125000010039000541b100054252001200320080
:101260000a003b0082817100610164008100d100ad
:101270000080d3008984d3000884d3008b05e80064
:101280000442e800f7ff3a00070037000804440072
:1012900089844c0000004800818048008b05e900eb
:1012a0000442e900f9ff3a00030007004f05be00c1
:1012b0004f04be0000000600810020006180550040
:1012c0000b003d000b00200061fe2f000100e1003b
:1012d0001d00340082817100610164008904d10025
:1012e0000884d3000000e800faff3a0071002000f3
:1012f0006100640003007000020060000900320019
:1013000061044400e0844c000988a5000500320017
:101310008b05e8006808e10002003a008904d1006a
:101320000884d300f20f20000258e10005003d00c0
:10133000c75ddd00f907b2008980750008007800fc
:10134000000006000bf827008b0078000000050065
:020000040000fa
:101350000400fa00004f7800110798001e00fb00ff
:10136000e10f500003003200e20f50001400320081
:10137000260037000021ef001e009000cf80de0025
:101380000ffd070002002000a347240024fd0700f2
:10139000024425009388240000fe0700edfc0700ae
:1013a0000000780010088800210880000003200059
:1013b000010070002008880005e1a8001300370034
:1013c0000621ef001e009000cf80de00fcfc07002d
:1013d00002002000a347240011fd0700024425005d
:1013e00093882400edfd0700dafc07000000780078
:1013f0006008880081088000000320000100700060
:101400008008880011e1a800000000000080fa00b8
:10141000000006000400fa00204798002e409000cb
:101420000000fb00e10f500003003200e20f50000b
:101430000d00320019003700004080004300de003c
:10144000614060000080fb00000f78000000000099
:1014500000408000680060000000e000fcff3200f7
:101460000068a9000d003700004080004700de0042
:10147000614060000080fb00000f78000000000069
:101480000140800000082000008060000000e000b3
:10149000fbff320000e8a900000000001e007800f9
:1014a0000080fa00000006000c00fa00004f9800cf
:1014b000510798005e009000cf80de00c0fc07005e
:1014c00002002000a3472400d5fc070002442500a9
:1014d00093882400b1fd07007dfc0700009fbe003b
:1014e0000297be000e4890000000fb00e10f500084
:1014f00003003200e20f50002d0032005800370088
:1015000005e1a9002108800000032000010070000f
:10151000200888000021ef00120037001e0278002a
:101520009e0290002e039000be0390001000200049
:10153000f1ff2f00f2ff2f00f3ff2f00001f4200ea
:10154000019f4a00021f4b00038f4b006e00b10049
:101550000080eb001008880005e1a80010c0b3006f
:10156000acff0700f0ff2f00010020006011b80061
:101570001e0278009e0290002e039000be03900091
:101580000020e10001a8e10002b0e10003b8e100a1
:10159000e2ff3e0005e1a9001e0078001008880067
:1015a00005e1a80010c0b3009aff07002c00370027
:1015b00011e1a900810880000003200001007000f3
:1015c000800888000621ef00120037001e02780014
:1015d0009e0290002e039000be0390001000200099
:1015e000f1ff2f00f2ff2f00f3ff2f00001f42003a
:1015f000019f4a00021f4b00038f4b006e00b10099
:101600000080eb006008880011e1a80020c0b30052
:1016100080ff0700f0ff2f00010020006011b800dc
:101620001e0278009e0290002e039000be039000e0
:101630000020e10001a8e10002b0e10003b8e100f0
:10164000e2ff3e0011e1a9001e007800600888005a
:1016500011e1a80020c0b3006eff070000000000e9
:101660000080fa00000006000000fa0042a2a80074
:101670004342a90011128000c0ff2f0000806000cb
:10168000101288001112800030fe2f0000806000d0
:101690004001b3001012880042c2a80041e2a80035
:1016a000002ea800518ea90051aea900413680003d
:1016b00000f82f00008060001001b3004036880061
:1016c000c134800000fc2f00008060005000b30097
:1016d000c0348800b1348000f00f2c00808060009e
:1016e0000060200001007000b0348800106ea90076
:1016f000108ea90030cea900146ea800148ea80088
:1017000034cea8000080fa00000006000000fa00b5
:10171000316ea8002136800000f82f008080600024
:10172000b00420000100700020368800300ea900af
:101730000134800000fc2f00008060000000a00049
:1017400000348800401d20004011880021e2a800dc
:101750002342a8000080fa00000006000200fa0000
:10176000004f7800000000001111800000102000e0
:10177000008060000000e000fbff32001e80fb00e4
:10178000201188000080fa00000006000400fa0022
:10179000100798000000eb00000f780006003700eb
:1017a0001e0078009e0090000080400010407800ed
:1017b000eaff07001e0fe8001e0078009e00900060
:1017c00000804000104078000004e000f4ff3a0080
:1017d0000080fa00000006000200fa00000000008d
:1017e00000128000610060000000e000fcff320099
:1017f00040128000004f78001e4078000080fa0000
:10180000000006000400fa002047980000000000d5
:1018100000128000620060000000e000fcff3a005f
:101820002e4090000080fb0040128800eaff070075
:10183000004f78001e4078000080fa00000006008b
:101840000200fa00004f78001147980034cea9003a
:101850001e407800ebff07001e409000e9ff0700e4
:1018600034cea8000080fa00000006000400fa0050
:101870002047980034cea9002e4090000074a000ac
:10188000e0ff07000040eb00deff0700004f78009c
:1018900034cea8001e4078000080fa000000060048
:1018a0000000fa0011c0b300b0c4b300e4ff0700a9
:1018b0002100200020c0b300fbfe07008040eb00a9
:1018c000c0c4b300deff07000080fa00000006007d
:1018d0000200fa00004f7800114798001e40900067
:1018e0000080fb00c800dd001e80fb0001007000ce
:1018f0000080fa00000006000600fa0020c4b300d1
:10190000daff07000080fb00000f780030c4b3004e
:10191000d6ff07000080fb0010079800800f200012
:101920001e0f60001e009000804078001e007800ae
:1019300000407800e6ff0700200798002e00900086
:101940000000e00001003d00670040004380de0031
:10195000200798002e0090000080fa00000006008a
:101960000600fa0040c4b300c0ff07000080fb007f
:10197000000f780050c4b300bcff07000080fb00dc
:1019800010079800800f20001e0f60001e009000be
:10199000804078001e00780000407800ccff0700ef
:1019a000200798002e0090000000e00001003d009c
:1019b000670040004380de00200798002e00900062
:1019c0000080fa00000006000600fa0060c4b300c0
:1019d000a6ff07000080fb00000f780070c4b30072
:1019e000a2ff07000080fb0010079800e00f200016
:1019f0001e0f60001e009000804078001e007800de
:101a000000407800b2ff0700200798002e009000e9
:101a1000cf00de00008040000080d1002007980049
:101a20002e0090000080fa00000006000200fa007c
:101a3000000f78001e0078008000eb003110980045
:101a40001e0078008000eb00411098001e00780016
:101a50008000eb00511098000080fa0000000600a2
:101a60000200fa00000f78001e007800501090006d
:101a700000f0a7000000ea000000e9004f00de00cf
:101a80000080fa00000006000200fa00000f780053
:101a90001e007800d01090005002200000806800e6
:101aa00000f0a7000000ea000000e9004f00de009f
:101ab0000080fa00000006000400fa00000f780021
:101ac000214798001e007800efff07000000e000ab
:101ad00017003a001e007800301090009e00780039
:101ae00000804000ae409000014878001e00780061
:101af000301090008000e8005002200000017800c3
:101b0000110009008200d8008000fd0080007800ec
:101b10001e007800311098001e00780050109000d0
:101b20008000e8001e007800511098000100370086
:101b3000000000000080fa00000006000400fa0027
:101b4000100798001e009000c5ff07000000e0008d
:101b5000020032000080eb00180037001e009000e9
:101b6000401090009e0090000080400010407800df
:101b70000000fb00000f78001e0090004010900055
:101b80008000e800500220000001780011000900e8
:101b90008200d8008000fd00800078001e009000c8
:101ba000411098001e009000501090008000e90045
:101bb0001e009000511098001e0078000080fa006e
:101bc000000006000400fa00000f780011079800da
:101bd0001e007800e30f50000c003200e30f5000ad
:101be00005003c00e10f500016003200e20f5000eb
:101bf0001b00320026003700e40f50000a003200bc
:101c0000e50f50001d003200210037002429ef00ad
:101c10001e009000d04888001e0090008048880078
:101c20000629ef001a0037001e00900020498800a6
:101c30001a29ef001029ef001e009000304888009c
:101c4000130037001e009000204988001a29ef0079
:101c50001e009000804888000629ef000c00370025
:101c60002429ef001e009000d04888001029ef00c2
:101c70001e00900030488800050037002429ef003e
:101c80001a29ef001029ef000629ef0000000000dc
:101c90000080fa00000006000000fa002029ef0092
:101ca00000498000f0488800f0488000b048880073
:101cb000b0488000a0488800a048800060488800a4
:101cc00060488000504888005048800010488800d4
:101cd00010488000004888006e2eef00707380006e
:101ce0007072880070728000f0718800f07180005e
:101cf0007071880070718000f0708800f070800052
:101d0000707088000148800000c021000100700050
:101d1000004888000148800080ff2f00008060009c
:101d20006000b3000048880010488000f001b30054
:101d3000104888005148800000c021000100700058
:101d4000504888005148800080ff2f0000806000cc
:101d50006000b3005048880060488000f001b30084
:101d600060488800a148800000c021000100700088
:101d7000a0488800a148800080ff2f0000806000fc
:101d80006000b300a0488800b0488000f001b300b4
:101d9000b0488800f148800000c0210001007000b8
:101da000f0488800f148800080ff2f00008060002c
:101db0006000b300f048880000498000f001b300e3
:101dc0000049880001348000f00f2c000080600082
:101dd00000c0a000003488001134800000fc2f00f7
:101de000008060001001b3001034880011348000be
:101df000f00f2c00808060000020210001007000a6
:101e0000103488002134800000fc2f000080600026
:101e10003001b3002034880000c22100104988003e
:101e200010498000c0488800c04880007048880081
:101e30007048800020488800410ea80001358000cd
:101e4000f00f2800808060000080250001007000f5
:101e500000358800c3e8a8000288a9002288a800ed
:101e600000d0bf000004e0000400320001e42700bd
:101e70004000200053ff0700f9ff37008000eb000f
:0c1e8000500020004fff0700f5ff370066
:020000040000fa
:101e8c0000100000020000008000000002100000a2
:0c1e9c00020000008000000000000000b8
:00000001FF
